:03000000020FBE2E
:0C0FBE00787FE4F6D8FD75812002080061
:100BDA009000D8EBF0A3EAF0A3E9F0A3ECF0A3EDC0
:100BEA00F0C3EC6480948050249000DBE0FEA3E024
:100BFA00FFC3E49FFFE49E9000DBF0A3EFF09000B8
:100C0A00D8E0FBA3E0FAA3E0F9742D800D9000D898
:100C1A00E0FBA3E0FAA3E0F97420120D519000DB87
:100C2A00E0FEA3E0FF7C277D10120D63EF2430FF66
:100C3A009000D8E0FBA3E475F001120D99A9F0FA2F
:100C4A00EF120D519000DBE0FEA3E0FF7C277D1040
:100C5A00120D639000DBECF0FEA3EDF0FF7C037D48
:100C6A00E8120D63EF2430FF9000D8E0FBA3E4758F
:100C7A00F001120D99A9F0FAEF120D519000DBE084
:100C8A00FEA3E0FF7C037DE8120D639000DBECF02D
:100C9A00FEA3EDF0FF7C007D64120D63EF2430FFAC
:100CAA009000D8E0FBA3E475F001120D99A9F0FABF
:100CBA00EF120D519000DBE0FEA3E0FF7C007D64A3
:100CCA00120D639000DBECF0FEA3EDF0FF7C007DDB
:100CDA000A120D63EF2430FF9000D8E0FBA3E475FD
:100CEA00F001120D99A9F0FAEF120D519000DBE014
:100CFA00FEA3E0FF7C007D0A120D639000DBECF09E
:100D0A00A3EDF02430FF9000D8E0FBA3E475F001D6
:0A0D1A00120D99A9F0FAEF020D5135
:080FD6008F993099FDC29922A8
:100ED800E4FDFCC3ED9FEC9E5015E4FBFA0BBB0050
:0F0EE800010AEB64794A70F50DBD00010C80E43E
:010EF70022D8
:100F4B000000000000000000000000000000000096
:090F5B000000000000000000226B
:0F0F9400D281D280120F4BC281120F4BC280222A
:0C0FCA00C281D280120F4BD281020F4B6B
:0E0FA300A2009281D280120F4BC280020F4B2F
:0D0FB100D280120F4BA281C280120F4B2282
:100F1700E4FEEF25E0FF9281D280120F4BC28012D0
:0A0F27000F4B0EEEB408EB020FB101
:100EF800E4FFD281FEEF25E0FFD280120F4BA281E2
:0E0F0800E4334FFFC280120F4B0EEEB408E729
:010F160022B8
:100F7D00AC07120F947FD0120F17AF04120F17AFDB
:070F8D0005120F17020FCA45
:020E9300AD07A9
:100E9500120F947FD0120F17AF05120F17120F9470
:100EA5007FD1120F17120EF8D200120FA3120FCA1C
:010EB500221A
:100EB600E4FD7F6B120F7D7D077F19120F7D1D7F6D
:100EC6001A120F7D7D187F1B120F7D7D017F1C027C
:020ED6000F7D8E
:020F3100AC070B
:100F3300120E93AB07EC04FF120E93AD07EBFE7C8E
:070F430000E42DFFEC3EFE6F
:010F4A002284
:080E67009000DDEDF0A3EBF0BB
:100E6F007B017A0079D2AD07AC06120BDAE4FE747F
:100E7F00D22EF582E43400F583E0FF120FD60EEE8A
:030E8F00B406ECBA
:010E9200223D
:100F6400758921758DFD758BFD759850D2BCD28C19
:090F7400D28ED2A9D2ACD2AF2278
:0B0E3A009000CCEBF0A3EAF0A3E9F07D
:100E4500E4FEEEC39D501A9000CCE0FBA3E0FAA3AC
:100E5500E0F98E82758300120D24FF120FD60E80E5
:010E6500E1AB
:010E66002269
:0E0E04009000CCEBF0A3EAF0A3E9F0A3EDF030
:100E12007F5AE4FE9000CFE0FDEEC39D5019900092
:100E2200CCE0FBA3E0FAA3E0F98E82758300120DF9
:070E3200246F2FFF0E80DD8D
:010E39002296
:100800007FF47E01120ED8120F64120EB67F967E10
:1008100000120ED8E49000C8F0E0FF04F074002F3E
:10082000F582E43400F5837424F09000C8E0FF04FE
:10083000F074002FF582E43400F5837455F09000D5
:10084000C8E0FF04F074002FF582E43400F58374EF
:10085000AAF07F3B120F319000CAEEF0A3EFF090A8
:1008600000CAE0FEA3E0FD9000C8E0FC04F07400C4
:100870002CF582E43400F583EDF0EEFF9000C8E043
:10088000FE04F074002EF582E43400F583EFF0905E
:1008900000CAE0FCA3E0FDAE047810CEA2E713CEC0
:1008A00013D8F8FF9000C8E0FE04F074002EF58223
:1008B000E43400F583EFF0EDAE047818CEA2E71330
:1008C000CE13D8F8FF9000C8E0FE04F074002EF5B7
:1008D00082E43400F583EFF07F3D120F319000CABF
:1008E000EEF0A3EFF09000CAE0FEA3E0FD9000C898
:1008F000E0FC04F074002CF582E43400F583EDF0A4
:10090000EEFF9000C8E0FE04F074002EF582E4349F
:1009100000F583EFF09000CAE0FCA3E0FDAE0478A0
:1009200010CEA2E713CE13D8F8FF9000C8E0FE0463
:10093000F074002EF582E43400F583EFF0EDAE04A0
:100940007818CEA2E713CE13D8F8FF9000C8E0FEC7
:1009500004F074002EF582E43400F583EFF07F3F5D
:10096000120F319000CAEEF0A3EFF09000CAE0FE43
:10097000A3E0FD9000C8E0FC04F074002CF582E4D4
:100980003400F583EDF0EEFF9000C8E0FE04F07453
:10099000002EF582E43400F583EFF09000CAE0FC0D
:1009A000A3E0FDAE047810CEA2E713CE13D8F8FF73
:1009B0009000C8E0FE04F074002EF582E43400F5E7
:1009C00083EFF0EDAE047818CEA2E713CE13D8F87B
:1009D000FF9000C8E0FE04F074002EF582E43400BD
:1009E000F583EFF07F43120F319000CAEEF0A3EFD2
:1009F000F09000CAE0FEA3E0FD9000C8E0FC04F027
:100A000074002CF582E43400F583EDF0EEFF9000E5
:100A1000C8E0FE04F074002EF582E43400F583EFA4
:100A2000F09000CAE0FCA3E0FDAE047810CEA2E78F
:100A300013CE13D8F8FF9000C8E0FE04F074002E27
:100A4000F582E43400F583EFF0EDAE047818CEA221
:100A5000E713CE13D8F8FF9000C8E0FE04F074004E
:100A60002EF582E43400F583EFF07F45120F3190CC
:100A700000CAEEF0A3EFF09000CAE0FEA3E0FD9004
:100A800000C8E0FC04F074002CF582E43400F58327
:100A9000EDF0EEFF9000C8E0FE04F074002EF58249
:100AA000E43400F583EFF09000CAE0FCA3E0FDAE73
:100AB000047810CEA2E713CE13D8F8FF9000C8E058
:100AC000FE04F074002EF582E43400F583EFF0EDBF
:100AD000AE047818CEA2E713CE13D8F8FF9000C862
:100AE000E0FE04F074002EF582E43400F583EFF0AC
:100AF0007F47120F319000CAEEF0A3EFF09000CACA
:100B0000E0FEA3E0FD9000C8E0FC04F074002CF5CA
:100B100082E43400F583EDF0EEFF9000C8E0FE04BF
:100B2000F074002EF582E43400F583EFF09000CAF3
:100B3000E0FCA3E0FDAE047810CEA2E713CE13D8FC
:100B4000F8FF9000C8E0FE04F074002EF582E43453
:100B500000F583EFF0EDAE047818CEA2E713CE13C4
:100B6000D8F8FF9000C8E0FE04F074002EF582E48F
:100B70003400F583EFF09000C8E0FFA3F0FD7B01A7
:100B80007A007900120E049000C8E0FE04F07400B0
:100B90002EF582E43400F583EFF09000C8E0FF0406
:100BA000F074002FF582E43400F583740DF09000AA
:100BB000C8E0FF04F074002FF582E43400F583747C
:100BC0000AF07B017A0079009000C8E0FD120E3A2D
:0A0BD0007F647E00120ED8020814A4
:100D2400BB010CE58229F582E5833AF583E0225084
:100D340006E92582F8E622BBFE06E92582F8E222CE
:0D0D4400E58229F582E5833AF583E49322E8
:100D5100BB010689828A83F0225002F722BBFE0181
:020D6100F3227B
:100D6300C2D5EC30E709B2D5E4C39DFDE49CFCEEAB
:100D730030E715B2D5E4C39FFFE49EFE120DAFC367
:100D8300E49DFDE49CFC8003120DAF30D507C3E462
:060D93009FFFE49EFE221A
:100D9900C5F0F8A3E028F0C5F0F8E58215827002E5
:060DA9001583E038F02282
:100DAF00BC000BBE0029EF8DF084FFADF022E4CC28
:100DBF00F875F008EF2FFFEE33FEEC33FCEE9DECF1
:100DCF00984005FCEE9DFE0FD5F0E9E4CEFD22ED37
:100DDF00F8F5F0EE8420D21CFEADF075F008EF2F81
:100DEF00FFED33FD4007985006D5F0F222C398FD72
:050DFF000FD5F0EA220F
:00000001FF
