:030000000207B83C
:0C07B800787FE4F6D8FD75812002000374
:1003D4009000D7EBF0A3EAF0A3E9F0A3ECF0A3EDCF
:1003E400F0C3EC6480948050249000DAE0FEA3E033
:1003F400FFC3E49FFFE49E9000DAF0A3EFF09000C7
:10040400D7E0FBA3E0FAA3E0F9742D800D9000D7A8
:10041400E0FBA3E0FAA3E0F9742012054B9000DAA4
:10042400E0FEA3E0FF7C277D1012055DEF2430FF82
:100434009000D7E0FBA3E475F001120593A9F0FA4C
:10044400EF12054B9000DAE0FEA3E0FF7C277D105D
:1004540012055D9000DAECF0FEA3EDF0FF7C037D65
:10046400E812055DEF2430FF9000D7E0FBA3E475AC
:10047400F001120593A9F0FAEF12054B9000DAE0AF
:10048400FEA3E0FF7C037DE812055D9000DAECF04A
:10049400FEA3EDF0FF7C007D6412055DEF2430FFC8
:1004A4009000D7E0FBA3E475F001120593A9F0FADC
:1004B400EF12054B9000DAE0FEA3E0FF7C007D64C0
:1004C40012055D9000DAECF0FEA3EDF0FF7C007DF8
:1004D4000A12055DEF2430FF9000D7E0FBA3E4751A
:1004E400F001120593A9F0FAEF12054B9000DAE03F
:1004F400FEA3E0FF7C007D0A12055D9000DAECF0BB
:10050400A3EDF02430FF9000D7E0FBA3E475F001E5
:0A051400120593A9F0FAEF02054B5F
:0807D0008F993099FDC29922B6
:1006D200E4FDFCC3ED9FEC9E5015E4FBFA0BBB005E
:0F06E200010AEB64794A70F50DBD00010C80E44C
:0106F10022E6
:1007450000000000000000000000000000000000A4
:0907550000000000000000002279
:0F078E00D281D280120745C281120745C2802254
:0C07C400C281D280120745D28102074595
:0E079D00A2009281D280120745C28002074559
:0D07AB00D280120745A281C28012074522AC
:10071100E4FEEF25E0FF9281D280120745C28012EC
:0A07210007450EEEB408EB0207AB2B
:1006F200E4FFD281FEEF25E0FFD280120745A281FE
:0E070200E4334FFFC2801207450EEEB408E745
:0107100022C6
:10077700AC0712078E7FD0120711AF04120711AF13
:07078700051207110207C46F
:02068D00AD07B7
:10068F0012078E7FD0120711AF0512071112078EB6
:10069F007FD11207111206F2D20012079D1207C462
:0106AF002228
:1006B000E4FD7F6B1207777D077F191207771D7F97
:1006C0001A1207777D187F1B1207777D017F1C02A6
:0206D0000777AA
:02072B00AC0719
:10072D0012068DAB07EC04FF12068DAD07EBFE7CB8
:07073D0000E42DFFEC3EFE7D
:010744002292
:080661009000DCEDF0A3EBF0CA
:100669007B017A0079D1AD07AC061203D4E4FE749C
:10067900D12EF582E43400F583E0FF1207D00EEEA7
:03068900B406ECC8
:01068C00224B
:10075E00758921758DFD758BFD759850D2BCD28C27
:09076E00D28ED2A9D2ACD2AF2286
:0B0634009000CBEBF0A3EAF0A3E9F08C
:10063F00E4FEEEC39D501A9000CBE0FBA3E0FAA3BB
:10064F00E0F98E8275830012051EFF1207D00E800F
:01065F00E1B9
:010660002277
:0E05FE009000CBEBF0A3EAF0A3E9F0A3EDF040
:10060C007F5AE4FE9000CEE0FDEEC39D50199000A1
:10061C00CBE0FBA3E0FAA3E0F98E82758300120510
:07062C001E6F2FFF0E80DDA1
:0106330022A4
:100003007FF47E011206D212075E1206B07F967E3F
:10001300001206D2E49000C8F0E0FF04F074002F51
:10002300F582E43400F5837424F09000C8E0FF0403
:10003300F074002FF582E43400F5837455F09000DA
:10004300C8E0FF04F074002FF582E43400F58374F4
:10005300AAF07F3B12072B9000C9EEF0A3EFF090BC
:1000630000C9E0FEA3E0FD9000C8E0FC04F07400CA
:100073002CF582E43400F583EDF0EEFF9000C8E048
:10008300FE04F074002EF582E43400F583EFF09063
:1000930000C9E0FCA3E0FDAE047810CEA2E713CEC6
:1000A30013D8F8FF9000C8E0FE04F074002EF58228
:1000B300E43400F583EFF0EDAE047818CEA2E71335
:1000C300CE13D8F8FF9000C8E0FE04F074002EF5BC
:1000D30082E43400F583EFF07F3D12072B9000C9D3
:1000E300EEF0A3EFF09000C9E0FEA3E0FD9000C89E
:1000F300E0FC04F074002CF582E43400F583EDF0A9
:10010300EEFF9000C8E0FE04F074002EF582E434A4
:1001130000F583EFF09000C9E0FCA3E0FDAE0478A6
:1001230010CEA2E713CE13D8F8FF9000C8E0FE0468
:10013300F074002EF582E43400F583EFF0EDAE04A5
:100143007818CEA2E713CE13D8F8FF9000C8E0FECC
:1001530004F074002EF582E43400F583EFF07F3F62
:1001630012072B9000C9EEF0A3EFF09000C9E0FE58
:10017300A3E0FD9000C8E0FC04F074002CF582E4D9
:100183003400F583EDF0EEFF9000C8E0FE04F07458
:10019300002EF582E43400F583EFF09000C9E0FC13
:1001A300A3E0FDAE047810CEA2E713CE13D8F8FF78
:1001B3009000C8E0FE04F074002EF582E43400F5EC
:1001C30083EFF0EDAE047818CEA2E713CE13D8F880
:1001D300FF9000C8E0FE04F074002EF582E43400C2
:1001E300F583EFF07F4312072B9000C9EEF0A3EFE6
:1001F300F09000C9E0FEA3E0FD9000C8E0FC04F02D
:1002030074002CF582E43400F583EDF0EEFF9000EA
:10021300C8E0FE04F074002EF582E43400F583EFA9
:10022300F09000C9E0FCA3E0FDAE047810CEA2E795
:1002330013CE13D8F8FF9000C8E0FE04F074002E2C
:10024300F582E43400F583EFF0EDAE047818CEA226
:10025300E713CE13D8F8FF9000C8E0FE04F0740053
:100263002EF582E43400F583EFF07F4512072B90DF
:1002730000C9EEF0A3EFF09000C9E0FEA3E0FD900B
:1002830000C8E0FC04F074002CF582E43400F5832C
:10029300EDF0EEFF9000C8E0FE04F074002EF5824E
:1002A300E43400F583EFF09000C9E0FCA3E0FDAE79
:1002B300047810CEA2E713CE13D8F8FF9000C8E05D
:1002C300FE04F074002EF582E43400F583EFF0EDC4
:1002D300AE047818CEA2E713CE13D8F8FF9000C867
:1002E300E0FE04F074002EF582E43400F583EFF0B1
:1002F3007F4712072B9000C9EEF0A3EFF09000C9DF
:10030300E0FEA3E0FD9000C8E0FC04F074002CF5CF
:1003130082E43400F583EDF0EEFF9000C8E0FE04C4
:10032300F074002EF582E43400F583EFF09000C9F9
:10033300E0FCA3E0FDAE047810CEA2E713CE13D801
:10034300F8FF9000C8E0FE04F074002EF582E43458
:1003530000F583EFF0EDAE047818CEA2E713CE13C9
:10036300D8F8FF9000C8E0FE04F074002EF582E494
:100373003400F583EFF09000C8E0FC7B017A00794C
:1003830000FD1205FE9000C8E0FE04F074002EF597
:1003930082E43400F583EFF09000C8E0FF04F074CA
:1003A300002FF582E43400F583740DF09000C8E06B
:1003B300FF04F074002FF582E43400F583740AF02F
:1003C3007B017A0079009000C8E0FD120634020038
:0103D3001712
:10051E00BB010CE58229F582E5833AF583E0225092
:10052E0006E92582F8E622BBFE06E92582F8E222DC
:0D053E00E58229F582E5833AF583E49322F6
:10054B00BB010689828A83F0225002F722BBFE018F
:02055B00F32289
:10055D00C2D5EC30E709B2D5E4C39DFDE49CFCEEB9
:10056D0030E715B2D5E4C39FFFE49EFE1205A9C383
:10057D00E49DFDE49CFC80031205A930D507C3E47E
:06058D009FFFE49EFE2228
:10059300C5F0F8A3E028F0C5F0F8E58215827002F3
:0605A3001583E038F02290
:1005A900BC000BBE0029EF8DF084FFADF022E4CC36
:1005B900F875F008EF2FFFEE33FEEC33FCEE9DECFF
:1005C900984005FCEE9DFE0FD5F0E9E4CEFD22ED45
:1005D900F8F5F0EE8420D21CFEADF075F008EF2F8F
:1005E900FFED33FD4007985006D5F0F222C398FD80
:0505F9000FD5F0EA221D
:00000001FF
