:0300000002053FB7
:0C053F00787FE4F6D8FD75812002024FA1
:100003009000E7EBF0A3EAF0A3E9F0A3ECF0A3ED93
:10001300F0C3EC6480948050249000EAE0FEA3E0F7
:10002300FFC3E49FFFE49E9000EAF0A3EFF090008B
:10003300E7E0FBA3E0FAA3E0F9742D800D9000E75D
:10004300E0FBA3E0FAA3E0F9742012017A9000EA3E
:10005300E0FEA3E0FF7C277D101201AEEF2430FF0A
:100063009000E7E0FBA3E475F0011201E4A9F0FAC4
:10007300EF12017A9000EAE0FEA3E0FF7C277D10F7
:100083001201AE9000EAECF0FEA3EDF0FF7C037DDD
:10009300E81201AEEF2430FF9000E7E0FBA3E47524
:1000A300F0011201E4A9F0FAEF12017A9000EAE0FC
:1000B300FEA3E0FF7C037DE81201AE9000EAECF0C2
:1000C300FEA3EDF0FF7C007D641201AEEF2430FF50
:1000D3009000E7E0FBA3E475F0011201E4A9F0FA54
:1000E300EF12017A9000EAE0FEA3E0FF7C007D645A
:1000F3001201AE9000EAECF0FEA3EDF0FF7C007D70
:100103000A1201AEEF2430FF9000E7E0FBA3E47591
:10011300F0011201E4A9F0FAEF12017A9000EAE08B
:10012300FEA3E0FF7C007D0A1201AE9000EAECF032
:10013300A3EDF02430FF9000E7E0FBA3E475F001AA
:0A0143001201E4A9F0FAEF02017ABC
:080563008F993099FDC2992225
:10043B00E4FDFCC3ED9FEC9E5015E4FBFA0BBB00F7
:0F044B00010AEB64794A70F50DBD00010C80E4E5
:01045A00227F
:1004D100000000000000000000000000000000001B
:0904E100000000000000000022F0
:0F051500D281D2801204D1C2811204D1C28022BD
:0C054B00C281D2801204D1D2810204D1FE
:0E052400A2009281D2801204D1C2800204D1C2
:0D053200D2801204D1A281C2801204D12215
:05045B001205157FD021
:10046000E4FEEF25E0FF9281D2801204D1C2801217
:0A04700004D10EEEB408EB020532D1
:10047A00E4FFD281FEEF25E0FFD2801204D1A281EF
:0E048A00E4334FFFC2801204D10EEEB408E737
:010498002241
:10050300AC0712045BAF04120460AF05120460026F
:02051300054B96
:02049900AD07AD
:10049B0012045BAF051204601205157FD1120460C4
:0B04AB0012047AD20012052412054B47
:0104B6002223
:10041800E4FD7F6B1205037D077F191205037D0438
:100428007F1A1205037D087F1B1205037D187F1CA8
:03043800020503B7
:0204B700AC0790
:1004B900120499AB07EC04FF120499AD07EBFE7C1B
:0704C90000E42DFFEC3EFEF4
:0104D0002209
:07055700D28012055EC28094
:04055E007F02DFFE3B
:010562002276
:0B032A009000CCEBF0A3EAF0A3E9F098
:1003350012045B7F3B1204601205157FD112046025
:10034500E4FD12047A9000CCE0FBA3E0FAA3E0F907
:100355008D82758300EF12018CC2811205570DED58
:10036500B40DDF12047A9000CCE0FBA3E0FAA3E021
:10037500F9AE058E82758300EF12018CD2811205CC
:040385005702054BCB
:0803EC009000F0EDF0A3EBF02E
:1003F4007B017A0079D1AD07AC06120003E4FE74E8
:10040400D12EF582E43400F583E0FF1205630EEE8D
:03041400B406EC3F
:0104170022C2
:1004EA00758921758DFD758BFD759850D2BCD28C9E
:0904FA00D28ED2A9D2ACD2AF22FD
:0B03BF009000CCEBF0A3EAF0A3E9F003
:1003CA00E4FEEEC39D501A9000CCE0FBA3E0FAA332
:1003DA00E0F98E8275830012014DFF1205630E80CB
:0103EA00E131
:0103EB0022EF
:0E0389009000ECEBF0A3EAF0A3E9F0A3EDF096
:100397007F5AE4FE9000EFE0FDEEC39D50199000F8
:1003A700ECE0FBA3E0FAA3E0F98E8275830012016B
:0703B7004D6F2FFF0E80DDEA
:0103BE00221C
:10024F007F887E1312043B1204EA12043B12041837
:10025F007F75120499BF68F87FDC7E0512043BC2DC
:10026F0084C282C283C2857B017A0079D712032AA6
:10027F00E49000C8F0E0FF04F074002FF582E4343E
:10028F0000F5837424F09000C8E0FF04F074002F91
:10029F00F582E43400F5837455F09000C8E0FF0454
:1002AF00F074002FF582E43400F58374AAF0E4FFB4
:1002BF00FE74D72FF58274003EF583E0FD9000C8E1
:1002CF00E0FC04F074002CF582E43400F583EDF0CB
:1002DF000FBF00010EEF640E4E70D69000C8E0FF06
:1002EF0004F074002FF582E43400F583740DF09060
:1002FF0000C8E0FF04F074002FF582E43400F583AA
:10030F00740AF07B017A0079009000C8E0FD1203B7
:0B031F00BF7F647E0012043B020276E8
:10014D00BB010CE58229F582E5833AF583E0225067
:10015D0006E92582F8E622BBFE06E92582F8E222B1
:0D016D00E58229F582E5833AF583E49322CB
:10017A00BB010689828A83F0225002F722BBFE0164
:02018A00F3225E
:10018C00F8BB010DE58229F582E5833AF583E8F0A9
:10019C00225006E92582C8F622BBFE05E92582C855
:0201AC00F2223D
:1001AE00C2D5EC30E709B2D5E4C39DFDE49CFCEE6C
:1001BE0030E715B2D5E4C39FFFE49EFE1201FAC3E9
:1001CE00E49DFDE49CFC80031201FA30D507C3E4E4
:0601DE009FFFE49EFE22DB
:1001E400C5F0F8A3E028F0C5F0F8E58215827002A6
:0601F4001583E038F02243
:1001FA00BC000BBE0029EF8DF084FFADF022E4CCE9
:10020A00F875F008EF2FFFEE33FEEC33FCEE9DECB1
:10021A00984005FCEE9DFE0FD5F0E9E4CEFD22EDF7
:10022A00F8F5F0EE8420D21CFEADF075F008EF2F41
:10023A00FFED33FD4007985006D5F0F222C398FD32
:05024A000FD5F0EA22CF
:00000001FF
