:030000000207C232
:0C07C200787FE4F6D8FD7581200200036A
:1003DD009000D8EBF0A3EAF0A3E9F0A3ECF0A3EDC5
:1003ED00F0C3EC6480948050249000DBE0FEA3E029
:1003FD00FFC3E49FFFE49E9000DBF0A3EFF09000BD
:10040D00D8E0FBA3E0FAA3E0F9742D800D9000D89D
:10041D00E0FBA3E0FAA3E0F974201205549000DB91
:10042D00E0FEA3E0FF7C277D10120566EF2430FF70
:10043D009000D8E0FBA3E475F00112059CA9F0FA39
:10044D00EF1205549000DBE0FEA3E0FF7C277D104A
:10045D001205669000DBECF0FEA3EDF0FF7C037D52
:10046D00E8120566EF2430FF9000D8E0FBA3E47599
:10047D00F00112059CA9F0FAEF1205549000DBE093
:10048D00FEA3E0FF7C037DE81205669000DBECF037
:10049D00FEA3EDF0FF7C007D64120566EF2430FFB6
:1004AD009000D8E0FBA3E475F00112059CA9F0FAC9
:1004BD00EF1205549000DBE0FEA3E0FF7C007D64AD
:1004CD001205669000DBECF0FEA3EDF0FF7C007DE5
:1004DD000A120566EF2430FF9000D8E0FBA3E47507
:1004ED00F00112059CA9F0FAEF1205549000DBE023
:1004FD00FEA3E0FF7C007D0A1205669000DBECF0A8
:10050D00A3EDF02430FF9000D8E0FBA3E475F001DB
:0A051D0012059CA9F0FAEF02055444
:0807DA008F993099FDC29922AC
:1006DC00E4FDFCC3ED9FEC9E5015E4FBFA0BBB0054
:0F06EC00010AEB64794A70F50DBD00010C80E442
:0106FB0022DC
:10074F00000000000000000000000000000000009A
:09075F000000000000000000226F
:0F079800D281D28012074FC28112074FC2802236
:0C07CE00C281D28012074FD28102074F77
:0E07A700A2009281D28012074FC28002074F3B
:0D07B500D28012074FA281C28012074F228E
:10071B00E4FEEF25E0FF9281D28012074FC28012D8
:0A072B00074F0EEEB408EB0207B50D
:1006FC00E4FFD281FEEF25E0FFD28012074FA281EA
:0E070C00E4334FFFC28012074F0EEEB408E731
:01071A0022BC
:10078100AC071207987FD012071BAF0412071BAFEB
:070791000512071B0207CE51
:02069600AD07AE
:100698001207987FD012071BAF0512071B12079885
:1006A8007FD112071B1206FCD2001207A71207CE31
:0106B800221F
:1006B900E4FD7F6B1207817D077F191207817D0495
:1006C9007F1A1207817D087F1B1207817D187F1C05
:0306D90002078194
:02073500AC070F
:10073700120696AB07EC04FF120696AD07EBFE7C9C
:0707470000E42DFFEC3EFE73
:01074E002288
:08066A009000DDEDF0A3EBF0C0
:100672007B017A0079D2AD07AC061203DDE4FE7489
:10068200D22EF582E43400F583E0FF1207DA0EEE93
:03069200B406ECBF
:010695002242
:10076800758921758DFD758BFD759850D2BCD28C1D
:09077800D28ED2A9D2ACD2AF227C
:0B063D009000CCEBF0A3EAF0A3E9F082
:10064800E4FEEEC39D501A9000CCE0FBA3E0FAA3B1
:10065800E0F98E82758300120527FF1207DA0E80F3
:01066800E1B0
:01066900226E
:0E0607009000CCEBF0A3EAF0A3E9F0A3EDF035
:100615007F5AE4FE9000CFE0FDEEC39D5019900097
:10062500CCE0FBA3E0FAA3E0F98E82758300120506
:07063500276F2FFF0E80DD8F
:01063C00229B
:100003007FF47E011206DC1207681206B97F967E22
:10001300001206DCE49000C8F0E0FF04F074002F47
:10002300F582E43400F5837424F09000C8E0FF0403
:10003300F074002FF582E43400F5837455F09000DA
:10004300C8E0FF04F074002FF582E43400F58374F4
:10005300AAF07F3B1207359000CAEEF0A3EFF090B1
:1000630000CAE0FEA3E0FD9000C8E0FC04F07400C9
:100073002CF582E43400F583EDF0EEFF9000C8E048
:10008300FE04F074002EF582E43400F583EFF09063
:1000930000CAE0FCA3E0FDAE047810CEA2E713CEC5
:1000A30013D8F8FF9000C8E0FE04F074002EF58228
:1000B300E43400F583EFF0EDAE047818CEA2E71335
:1000C300CE13D8F8FF9000C8E0FE04F074002EF5BC
:1000D30082E43400F583EFF07F3D1207359000CAC8
:1000E300EEF0A3EFF09000CAE0FEA3E0FD9000C89D
:1000F300E0FC04F074002CF582E43400F583EDF0A9
:10010300EEFF9000C8E0FE04F074002EF582E434A4
:1001130000F583EFF09000CAE0FCA3E0FDAE0478A5
:1001230010CEA2E713CE13D8F8FF9000C8E0FE0468
:10013300F074002EF582E43400F583EFF0EDAE04A5
:100143007818CEA2E713CE13D8F8FF9000C8E0FECC
:1001530004F074002EF582E43400F583EFF07F3F62
:100163001207359000CAEEF0A3EFF09000CAE0FE4C
:10017300A3E0FD9000C8E0FC04F074002CF582E4D9
:100183003400F583EDF0EEFF9000C8E0FE04F07458
:10019300002EF582E43400F583EFF09000CAE0FC12
:1001A300A3E0FDAE047810CEA2E713CE13D8F8FF78
:1001B3009000C8E0FE04F074002EF582E43400F5EC
:1001C30083EFF0EDAE047818CEA2E713CE13D8F880
:1001D300FF9000C8E0FE04F074002EF582E43400C2
:1001E300F583EFF07F431207359000CAEEF0A3EFDB
:1001F300F09000CAE0FEA3E0FD9000C8E0FC04F02C
:1002030074002CF582E43400F583EDF0EEFF9000EA
:10021300C8E0FE04F074002EF582E43400F583EFA9
:10022300F09000CAE0FCA3E0FDAE047810CEA2E794
:1002330013CE13D8F8FF9000C8E0FE04F074002E2C
:10024300F582E43400F583EFF0EDAE047818CEA226
:10025300E713CE13D8F8FF9000C8E0FE04F0740053
:100263002EF582E43400F583EFF07F4512073590D5
:1002730000CAEEF0A3EFF09000CAE0FEA3E0FD9009
:1002830000C8E0FC04F074002CF582E43400F5832C
:10029300EDF0EEFF9000C8E0FE04F074002EF5824E
:1002A300E43400F583EFF09000CAE0FCA3E0FDAE78
:1002B300047810CEA2E713CE13D8F8FF9000C8E05D
:1002C300FE04F074002EF582E43400F583EFF0EDC4
:1002D300AE047818CEA2E713CE13D8F8FF9000C867
:1002E300E0FE04F074002EF582E43400F583EFF0B1
:1002F3007F471207359000CAEEF0A3EFF09000CAD3
:10030300E0FEA3E0FD9000C8E0FC04F074002CF5CF
:1003130082E43400F583EDF0EEFF9000C8E0FE04C4
:10032300F074002EF582E43400F583EFF09000CAF8
:10033300E0FCA3E0FDAE047810CEA2E713CE13D801
:10034300F8FF9000C8E0FE04F074002EF582E43458
:1003530000F583EFF0EDAE047818CEA2E713CE13C9
:10036300D8F8FF9000C8E0FE04F074002EF582E494
:100373003400F583EFF09000C8E0FFA3F0FD7B01AC
:100383007A0079001206079000C8E0FE04F07400BA
:100393002EF582E43400F583EFF09000C8E0FF040B
:1003A300F074002FF582E43400F583740DF09000AF
:1003B300C8E0FF04F074002FF582E43400F5837481
:1003C3000AF07B017A0079009000C8E0FD12063D37
:0A03D3007F647E001206DC020017B2
:10052700BB010CE58229F582E5833AF583E0225089
:1005370006E92582F8E622BBFE06E92582F8E222D3
:0D054700E58229F582E5833AF583E49322ED
:10055400BB010689828A83F0225002F722BBFE0186
:02056400F32280
:10056600C2D5EC30E709B2D5E4C39DFDE49CFCEEB0
:1005760030E715B2D5E4C39FFFE49EFE1205B2C371
:10058600E49DFDE49CFC80031205B230D507C3E46C
:060596009FFFE49EFE221F
:10059C00C5F0F8A3E028F0C5F0F8E58215827002EA
:0605AC001583E038F02287
:1005B200BC000BBE0029EF8DF084FFADF022E4CC2D
:1005C200F875F008EF2FFFEE33FEEC33FCEE9DECF6
:1005D200984005FCEE9DFE0FD5F0E9E4CEFD22ED3C
:1005E200F8F5F0EE8420D21CFEADF075F008EF2F86
:1005F200FFED33FD4007985006D5F0F222C398FD77
:050602000FD5F0EA2213
:00000001FF
