:0300000002085A99
:0C085A00787FE4F6D8FD758120020003D1
:1003F9009000EAEBF0A3EAF0A3E9F0A3ECF0A3ED97
:10040900F0C3EC6480948050249000EDE0FEA3E0FA
:10041900FFC3E49FFFE49E9000EDF0A3EFF090008E
:10042900EAE0FBA3E0FAA3E0F9742D800D9000EA5D
:10043900E0FBA3E0FAA3E0F974201205709000ED47
:10044900E0FEA3E0FF7C277D101205A4EF2430FF16
:100459009000EAE0FBA3E475F0011205DAA9F0FACD
:10046900EF1205709000EDE0FEA3E0FF7C277D1000
:100479001205A49000EDECF0FEA3EDF0FF7C037DE6
:10048900E81205A4EF2430FF9000EAE0FBA3E4752D
:10049900F0011205DAA9F0FAEF1205709000EDE00B
:1004A900FEA3E0FF7C037DE81205A49000EDECF0CB
:1004B900FEA3EDF0FF7C007D641205A4EF2430FF5C
:1004C9009000EAE0FBA3E475F0011205DAA9F0FA5D
:1004D900EF1205709000EDE0FEA3E0FF7C007D6463
:1004E9001205A49000EDECF0FEA3EDF0FF7C007D79
:1004F9000A1205A4EF2430FF9000EAE0FBA3E4759B
:10050900F0011205DAA9F0FAEF1205709000EDE09A
:10051900FEA3E0FF7C007D0A1205A49000EDECF03B
:10052900A3EDF02430FF9000EAE0FBA3E475F001AD
:0A0539001205DAA9F0FAEF020570CE
:08087E008F993099FDC2992207
:10075600E4FDFCC3ED9FEC9E5015E4FBFA0BBB00D9
:0F076600010AEB64794A70F50DBD00010C80E4C7
:010775002261
:1007EC0000000000000000000000000000000000FD
:0907FC00000000000000000022D2
:0F083000D281D2801207ECC2811207ECC2802263
:0C086600C281D2801207ECD2810207ECA4
:0E083F00A2009281D2801207ECC2800207EC68
:0D084D00D2801207ECA281C2801207EC22BB
:050776001208307FD0E5
:10077B00E4FEEF25E0FF9281D2801207ECC28012DB
:0A078B0007EC0EEEB408EB02084D77
:10079500E4FFD281FEEF25E0FFD2801207ECA281B3
:0E07A500E4334FFFC2801207EC0EEEB408E7FB
:0107B3002223
:10081E00AC07120776AF0412077BAF0512077B02F7
:02082E0008665A
:0207B400AD078F
:1007B600120776AF0512077B1208307FD112077B2E
:0B07C600120795D20012083F120866CF
:0107D1002205
:10073300E4FD7F6B12081E7D077F1912081E7D04DE
:100743007F1A12081E7D087F1B12081E7D187F1C4E
:0307530002081E7B
:0207D200AC0772
:1007D4001207B4AB07EC04FF1207B4AD07EBFE7CC1
:0707E40000E42DFFEC3EFED6
:0107EB0022EB
:07087200D280120879C28058
:040879007F02DFFE1D
:01087D002258
:0B0645009000CEEBF0A3EAF0A3E9F078
:100650001207767F3B12077B1208307FD112077B8F
:10066000E4FD1207959000CEE0FBA3E0FAA3E0F9C9
:100670008D82758300EF120582C2811208720DED22
:10068000B40DDF1207959000CEE0FBA3E0FAA3E0E3
:10069000F9AE058E82758300EF120582D2811208B1
:0406A0007202086674
:080707009000EFEDF0A3EBF010
:10070F007B017A0079D4AD07AC061203F9E4FE74CD
:10071F00D42EF582E43400F583E0FF12087E0EEE4E
:03072F00B406EC21
:0107320022A4
:10080500758921758DFD758BFD759850D2BCD28C7F
:09081500D28ED2A9D2ACD2AF22DE
:0B06DA009000CEEBF0A3EAF0A3E9F0E3
:1006E500E4FEEEC39D501A9000CEE0FBA3E0FAA312
:1006F500E0F98E82758300120543FF12087E0E8095
:01070500E112
:0107060022D0
:0E06A4009000CEEBF0A3EAF0A3E9F0A3EDF096
:1006B2007F5AE4FE9000D1E0FDEEC39D50199000F8
:1006C200CEE0FBA3E0FAA3E0F98E82758300120567
:0706D200436F2FFF0E80DDD6
:0106D90022FE
:100003007F887E131207561208051207561207330C
:100013007F751207B4BF68F87FDC7E05120756C2EE
:1000230084C282C283C2857B017A0079DA120645D3
:10003300E49000C8F0E0FF04F074002FF582E4348C
:1000430000F5837424F09000C8E0FF04F074002FDF
:10005300F582E43400F5837455F09000C8E0FF04A2
:10006300F074002FF582E43400F58374AAF07F3B2B
:100073001207D29000CAEEF0A3EFF09000CAE0FEA0
:10008300A3E0FD9000C8E0FC04F074002CF582E4CA
:100093003400F583EDF0EEFF9000C8E0FE04F07449
:1000A300002EF582E43400F583EFF09000CAE0FC03
:1000B300A3E0FDAE047810CEA2E713CE13D8F8FF69
:1000C3009000C8E0FE04F074002EF582E43400F5DD
:1000D30083EFF0EDAE047818CEA2E713CE13D8F871
:1000E300FF9000C8E0FE04F074002EF582E43400B3
:1000F300F583EFF07F3D1207D29000CAEEF0A3EF35
:10010300F09000CAE0FEA3E0FD9000C8E0FC04F01C
:1001130074002CF582E43400F583EDF0EEFF9000DB
:10012300C8E0FE04F074002EF582E43400F583EF9A
:10013300F09000CAE0FCA3E0FDAE047810CEA2E785
:1001430013CE13D8F8FF9000C8E0FE04F074002E1D
:10015300F582E43400F583EFF0EDAE047818CEA217
:10016300E713CE13D8F8FF9000C8E0FE04F0740044
:100173002EF582E43400F583EFF07F3F1207D2902F
:1001830000CAEEF0A3EFF09000CAE0FEA3E0FD90FA
:1001930000C8E0FC04F074002CF582E43400F5831D
:1001A300EDF0EEFF9000C8E0FE04F074002EF5823F
:1001B300E43400F583EFF09000CAE0FCA3E0FDAE69
:1001C300047810CEA2E713CE13D8F8FF9000C8E04E
:1001D300FE04F074002EF582E43400F583EFF0EDB5
:1001E300AE047818CEA2E713CE13D8F8FF9000C858
:1001F300E0FE04F074002EF582E43400F583EFF0A2
:100203007F431207D29000CAEEF0A3EFF09000CA2A
:10021300E0FEA3E0FD9000C8E0FC04F074002CF5C0
:1002230082E43400F583EDF0EEFF9000C8E0FE04B5
:10023300F074002EF582E43400F583EFF09000CAE9
:10024300E0FCA3E0FDAE047810CEA2E713CE13D8F2
:10025300F8FF9000C8E0FE04F074002EF582E43449
:1002630000F583EFF0EDAE047818CEA2E713CE13BA
:10027300D8F8FF9000C8E0FE04F074002EF582E485
:100283003400F583EFF07F451207D29000CAEEF0F9
:10029300A3EFF09000CAE0FEA3E0FD9000C8E0FCED
:1002A30004F074002CF582E43400F583EDF0EEFFE6
:1002B3009000C8E0FE04F074002EF582E43400F5EB
:1002C30083EFF09000CAE0FCA3E0FDAE047810CE0B
:1002D300A2E713CE13D8F8FF9000C8E0FE04F07431
:1002E300002EF582E43400F583EFF0EDAE047818C8
:1002F300CEA2E713CE13D8F8FF9000C8E0FE04F0B7
:1003030074002EF582E43400F583EFF07F47120783
:10031300D29000CAEEF0A3EFF09000CAE0FEA3E093
:10032300FD9000C8E0FC04F074002CF582E4340076
:10033300F583EDF0EEFF9000C8E0FE04F074002EAC
:10034300F582E43400F583EFF09000CAE0FCA3E00B
:10035300FDAE047810CEA2E713CE13D8F8FF9000B9
:10036300C8E0FE04F074002EF582E43400F583EF58
:10037300F0EDAE047818CEA2E713CE13D8F8FF90B1
:1003830000C8E0FE04F074002EF582E43400F58327
:10039300EFF09000C8E0FFA3F0FD7B017A00790045
:1003A3001206A49000C8E0FE04F074002EF582E467
:1003B3003400F583EFF09000C8E0FF04F074002FE1
:1003C300F582E43400F583740DF09000C8E0FF0477
:1003D300F074002FF582E43400F583740AF07B0196
:1003E3007A0079009000C8E0FD1206DA7F647E008F
:0603F30012075602002A69
:10054300BB010CE58229F582E5833AF583E022506D
:1005530006E92582F8E622BBFE06E92582F8E222B7
:0D056300E58229F582E5833AF583E49322D1
:10057000BB010689828A83F0225002F722BBFE016A
:02058000F32264
:10058200F8BB010DE58229F582E5833AF583E8F0AF
:10059200225006E92582C8F622BBFE05E92582C85B
:0205A200F22243
:1005A400C2D5EC30E709B2D5E4C39DFDE49CFCEE72
:1005B40030E715B2D5E4C39FFFE49EFE1205F0C3F5
:1005C400E49DFDE49CFC80031205F030D507C3E4F0
:0605D4009FFFE49EFE22E1
:1005DA00C5F0F8A3E028F0C5F0F8E58215827002AC
:0605EA001583E038F02249
:1005F000BC000BBE0029EF8DF084FFADF022E4CCEF
:10060000F875F008EF2FFFEE33FEEC33FCEE9DECB7
:10061000984005FCEE9DFE0FD5F0E9E4CEFD22EDFD
:10062000F8F5F0EE8420D21CFEADF075F008EF2F47
:10063000FFED33FD4007985006D5F0F222C398FD38
:050640000FD5F0EA22D5
:00000001FF
