:0300000002084FA4
:0C084F00787FE4F6D8FD758120020003DC
:1003F0009000E9EBF0A3EAF0A3E9F0A3ECF0A3EDA1
:10040000F0C3EC6480948050249000ECE0FEA3E004
:10041000FFC3E49FFFE49E9000ECF0A3EFF0900098
:10042000E9E0FBA3E0FAA3E0F9742D800D9000E968
:10043000E0FBA3E0FAA3E0F974201205679000EC5A
:10044000E0FEA3E0FF7C277D1012059BEF2430FF28
:100450009000E9E0FBA3E475F0011205D1A9F0FAE0
:10046000EF1205679000ECE0FEA3E0FF7C277D1013
:1004700012059B9000ECECF0FEA3EDF0FF7C037DF9
:10048000E812059BEF2430FF9000E9E0FBA3E47540
:10049000F0011205D1A9F0FAEF1205679000ECE027
:1004A000FEA3E0FF7C037DE812059B9000ECECF0DE
:1004B000FEA3EDF0FF7C007D6412059BEF2430FF6E
:1004C0009000E9E0FBA3E475F0011205D1A9F0FA70
:1004D000EF1205679000ECE0FEA3E0FF7C007D6476
:1004E00012059B9000ECECF0FEA3EDF0FF7C007D8C
:1004F0000A12059BEF2430FF9000E9E0FBA3E475AE
:10050000F0011205D1A9F0FAEF1205679000ECE0B6
:10051000FEA3E0FF7C007D0A12059B9000ECECF04E
:10052000A3EDF02430FF9000E9E0FBA3E475F001B7
:0A0530001205D1A9F0FAEF020567E9
:080873008F993099FDC2992212
:10074B00E4FDFCC3ED9FEC9E5015E4FBFA0BBB00E4
:0F075B00010AEB64794A70F50DBD00010C80E4D2
:01076A00226C
:1007E1000000000000000000000000000000000008
:0907F100000000000000000022DD
:0F082500D281D2801207E1C2811207E1C2802284
:0C085B00C281D2801207E1D2810207E1C5
:0E083400A2009281D2801207E1C2800207E189
:0D084200D2801207E1A281C2801207E122DC
:05076B001208257FD0FB
:10077000E4FEEF25E0FF9281D2801207E1C28012F1
:0A07800007E10EEEB408EB02084298
:10078A00E4FFD281FEEF25E0FFD2801207E1A281C9
:0E079A00E4334FFFC2801207E10EEEB408E711
:0107A800222E
:10081300AC0712076BAF04120770AF051207700223
:02082300085B70
:0207A900AD079A
:1007AB0012076BAF051207701208257FD112077065
:0B07BB0012078AD20012083412085BFB
:0107C6002210
:10072A00E4FD7F6B1208137D137F191208137D04F1
:10073A007F1A1208137D187F1B1208137F1C0208E8
:01074A00139B
:0207C700AC077D
:1007C9001207A9AB07EC04FF1207A9AD07EBFE7CE2
:0707D90000E42DFFEC3EFEE1
:0107E00022F6
:07086700D28012086EC2806E
:04086E007F02DFFE28
:010872002263
:0B063C009000CDEBF0A3EAF0A3E9F082
:1006470012076B7F3B1207701208257FD1120770C4
:10065700E4FD12078A9000CDE0FBA3E0FAA3E0F9DE
:100667008D82758300EF120579C2811208670DED3F
:10067700B40DDF12078A9000CDE0FBA3E0FAA3E0F8
:10068700F9AE058E82758300EF120579D2811208C3
:040697006702085B93
:0806FE009000EEEDF0A3EBF01B
:100706007B017A0079D3AD07AC061203F0E4FE74E0
:10071600D32EF582E43400F583E0FF1208730EEE63
:03072600B406EC2A
:0107290022AD
:1007FA00758921758DFD758BFD759850D2BCD28C8B
:09080A00D28ED2A9D2ACD2AF22E9
:0B06D1009000CDEBF0A3EAF0A3E9F0ED
:1006DC00E4FEEEC39D501A9000CDE0FBA3E0FAA31C
:1006EC00E0F98E8275830012053AFF1208730E80B2
:0106FC00E11C
:0106FD0022DA
:0E069B009000CDEBF0A3EAF0A3E9F0A3EDF0A0
:1006A9007F5AE4FE9000D0E0FDEEC39D5019900002
:1006B900CDE0FBA3E0FAA3E0F98E82758300120571
:0706C9003A6F2FFF0E80DDE8
:0106D0002207
:100003007FF47E0112074B1207FA12074B12072ADD
:100013007F751207A9BF68F87F967E0012074BC24F
:1000230084C282C283C2857B017A0079D912063CDD
:10003300E49000C8F0E0FF04F074002FF582E4348C
:1000430000F5837424F09000C8E0FF04F074002FDF
:10005300F582E43400F5837455F09000C8E0FF04A2
:10006300F074002FF582E43400F58374AAF07F3B2B
:100073001207C79000C9EEF0A3EFF09000C9E0FEAD
:10008300A3E0FD9000C8E0FC04F074002CF582E4CA
:100093003400F583EDF0EEFF9000C8E0FE04F07449
:1000A300002EF582E43400F583EFF09000C9E0FC04
:1000B300A3E0FDAE047810CEA2E713CE13D8F8FF69
:1000C3009000C8E0FE04F074002EF582E43400F5DD
:1000D30083EFF0EDAE047818CEA2E713CE13D8F871
:1000E300FF9000C8E0FE04F074002EF582E43400B3
:1000F300F583EFF07F3D1207C79000C9EEF0A3EF41
:10010300F09000C9E0FEA3E0FD9000C8E0FC04F01D
:1001130074002CF582E43400F583EDF0EEFF9000DB
:10012300C8E0FE04F074002EF582E43400F583EF9A
:10013300F09000C9E0FCA3E0FDAE047810CEA2E786
:1001430013CE13D8F8FF9000C8E0FE04F074002E1D
:10015300F582E43400F583EFF0EDAE047818CEA217
:10016300E713CE13D8F8FF9000C8E0FE04F0740044
:100173002EF582E43400F583EFF07F3F1207C7903A
:1001830000C9EEF0A3EFF09000C9E0FEA3E0FD90FC
:1001930000C8E0FC04F074002CF582E43400F5831D
:1001A300EDF0EEFF9000C8E0FE04F074002EF5823F
:1001B300E43400F583EFF09000C9E0FCA3E0FDAE6A
:1001C300047810CEA2E713CE13D8F8FF9000C8E04E
:1001D300FE04F074002EF582E43400F583EFF0EDB5
:1001E300AE047818CEA2E713CE13D8F8FF9000C858
:1001F300E0FE04F074002EF582E43400F583EFF0A2
:100203007F431207C79000C9EEF0A3EFF09000C937
:10021300E0FEA3E0FD9000C8E0FC04F074002CF5C0
:1002230082E43400F583EDF0EEFF9000C8E0FE04B5
:10023300F074002EF582E43400F583EFF09000C9EA
:10024300E0FCA3E0FDAE047810CEA2E713CE13D8F2
:10025300F8FF9000C8E0FE04F074002EF582E43449
:1002630000F583EFF0EDAE047818CEA2E713CE13BA
:10027300D8F8FF9000C8E0FE04F074002EF582E485
:100283003400F583EFF07F451207C79000C9EEF005
:10029300A3EFF09000C9E0FEA3E0FD9000C8E0FCEE
:1002A30004F074002CF582E43400F583EDF0EEFFE6
:1002B3009000C8E0FE04F074002EF582E43400F5EB
:1002C30083EFF09000C9E0FCA3E0FDAE047810CE0C
:1002D300A2E713CE13D8F8FF9000C8E0FE04F07431
:1002E300002EF582E43400F583EFF0EDAE047818C8
:1002F300CEA2E713CE13D8F8FF9000C8E0FE04F0B7
:1003030074002EF582E43400F583EFF07F47120783
:10031300C79000C9EEF0A3EFF09000C9E0FEA3E0A0
:10032300FD9000C8E0FC04F074002CF582E4340076
:10033300F583EDF0EEFF9000C8E0FE04F074002EAC
:10034300F582E43400F583EFF09000C9E0FCA3E00C
:10035300FDAE047810CEA2E713CE13D8F8FF9000B9
:10036300C8E0FE04F074002EF582E43400F583EF58
:10037300F0EDAE047818CEA2E713CE13D8F8FF90B1
:1003830000C8E0FE04F074002EF582E43400F58327
:10039300EFF09000C8E0FC7B017A007900FD1206C3
:1003A3009B9000C8E0FE04F074002EF582E4340054
:1003B300F583EFF09000C8E0FF04F074002FF5829E
:1003C300E43400F583740DF09000C8E0FF04F0748A
:1003D300002FF582E43400F583740AF07B017A0080
:0D03E30079009000C8E0FD1206D102002A4A
:10053A00BB010CE58229F582E5833AF583E0225076
:10054A0006E92582F8E622BBFE06E92582F8E222C0
:0D055A00E58229F582E5833AF583E49322DA
:10056700BB010689828A83F0225002F722BBFE0173
:02057700F3226D
:10057900F8BB010DE58229F582E5833AF583E8F0B8
:10058900225006E92582C8F622BBFE05E92582C864
:02059900F2224C
:10059B00C2D5EC30E709B2D5E4C39DFDE49CFCEE7B
:1005AB0030E715B2D5E4C39FFFE49EFE1205E7C307
:1005BB00E49DFDE49CFC80031205E730D507C3E402
:0605CB009FFFE49EFE22EA
:1005D100C5F0F8A3E028F0C5F0F8E58215827002B5
:0605E1001583E038F02252
:1005E700BC000BBE0029EF8DF084FFADF022E4CCF8
:1005F700F875F008EF2FFFEE33FEEC33FCEE9DECC1
:10060700984005FCEE9DFE0FD5F0E9E4CEFD22ED06
:10061700F8F5F0EE8420D21CFEADF075F008EF2F50
:10062700FFED33FD4007985006D5F0F222C398FD41
:050637000FD5F0EA22DE
:00000001FF
